{
  "contractName": "Foo",
  "abi": [
    {
      "inputs": [
        {
          "name": "_bar",
          "type": "address"
        }
      ],
      "payable": false,
      "stateMutability": "nonpayable",
      "type": "constructor"
    },
    {
      "constant": false,
      "inputs": [],
      "name": "callBar",
      "outputs": [],
      "payable": false,
      "stateMutability": "nonpayable",
      "type": "function"
    },
    {
      "constant": true,
      "inputs": [],
      "name": "echidna_test",
      "outputs": [
        {
          "name": "",
          "type": "bool"
        }
      ],
      "payable": false,
      "stateMutability": "view",
      "type": "function"
    }
  ],
  "bytecode": "0x608060405234801561001057600080fd5b5060405160208061022283398101806040528101908080519060200190929190505050806000806101000a81548173ffffffffffffffffffffffffffffffffffffffff021916908373ffffffffffffffffffffffffffffffffffffffff1602179055506000600181905550506101978061008b6000396000f30060806040526004361061004c576000357c0100000000000000000000000000000000000000000000000000000000900463ffffffff16806317bf8bac14610051578063acffee6b14610080575b600080fd5b34801561005d57600080fd5b50610066610097565b604051808215151515815260200191505060405180910390f35b34801561008c57600080fd5b506100956100a3565b005b60008060015414905090565b6000809054906101000a900473ffffffffffffffffffffffffffffffffffffffff1673ffffffffffffffffffffffffffffffffffffffff1663f8a8fd6d6040518163ffffffff167c0100000000000000000000000000000000000000000000000000000000028152600401602060405180830381600087803b15801561012857600080fd5b505af115801561013c573d6000803e3d6000fd5b505050506040513d602081101561015257600080fd5b81019080805190602001909291905050506001819055505600a165627a7a7230582023ba041cc3b46fe7d78dbb5b9f2ffbc604189d926f1b5cc0e5742a3c718ac9c10029",
  "source": "pragma solidity >=0.4.25 <0.6.0;\n\ncontract BarInterface {\n\tfunction test() public pure returns (uint);\n}\n\ncontract Foo {\n\tBarInterface bar;\n\tuint isOne;\n\n\tconstructor(address _bar) public {\n\t\tbar = BarInterface(_bar);\n\t\tisOne = 0;\n\t}\n\n\tfunction callBar() public {\n\t\tisOne = bar.test();\n\t}\n\n\tfunction echidna_test() public view returns (bool) {\n\t\treturn isOne == 0;\n\t}\n}\n",
  "sourcePath": "/Users/incertia/dev/git/echidna/examples/basic_multicontract/contracts/Foo.sol",
  "compiler": {
    "name": "solc",
    "version": "0.4.25+commit.59dbf8f1.Emscripten.clang"
  },
  "schemaVersion": "3.0.16",
  "updatedAt": "2020-01-01T01:08:16.028Z",
  "devdoc": {
    "methods": {}
  },
  "userdoc": {
    "methods": {}
  }
}